{
    "contractName": "credit",
    "abi": [
        {
            "inputs": [],
            "stateMutability": "nonpayable",
            "type": "constructor"
        },
        {
            "anonymous": false,
            "inputs": [
                {
                    "indexed": true,
                    "internalType": "address",
                    "name": "_owner",
                    "type": "address"
                },
                {
                    "indexed": true,
                    "internalType": "address",
                    "name": "_spender",
                    "type": "address"
                },
                {
                    "indexed": false,
                    "internalType": "uint256",
                    "name": "_value",
                    "type": "uint256"
                }
            ],
            "name": "Approval",
            "type": "event"
        },
        {
            "anonymous": false,
            "inputs": [
                {
                    "indexed": true,
                    "internalType": "address",
                    "name": "_from",
                    "type": "address"
                },
                {
                    "indexed": true,
                    "internalType": "address",
                    "name": "_to",
                    "type": "address"
                },
                {
                    "indexed": false,
                    "internalType": "uint256",
                    "name": "_value",
                    "type": "uint256"
                }
            ],
            "name": "Transfer",
            "type": "event"
        },
        {
            "inputs": [
                {
                    "internalType": "address",
                    "name": "_owner",
                    "type": "address"
                },
                {
                    "internalType": "address",
                    "name": "_spender",
                    "type": "address"
                }
            ],
            "name": "allowance",
            "outputs": [
                {
                    "internalType": "uint256",
                    "name": "remaining",
                    "type": "uint256"
                }
            ],
            "stateMutability": "view",
            "type": "function"
        },
        {
            "inputs": [
                {
                    "internalType": "address",
                    "name": "_spender",
                    "type": "address"
                },
                {
                    "internalType": "uint256",
                    "name": "_amount",
                    "type": "uint256"
                }
            ],
            "name": "approve",
            "outputs": [
                {
                    "internalType": "bool",
                    "name": "success",
                    "type": "bool"
                }
            ],
            "stateMutability": "nonpayable",
            "type": "function"
        },
        {
            "inputs": [
                {
                    "internalType": "address",
                    "name": "_owner",
                    "type": "address"
                }
            ],
            "name": "balanceOf",
            "outputs": [
                {
                    "internalType": "uint256",
                    "name": "balance",
                    "type": "uint256"
                }
            ],
            "stateMutability": "view",
            "type": "function"
        },
        {
            "inputs": [],
            "name": "name",
            "outputs": [
                {
                    "internalType": "string",
                    "name": "",
                    "type": "string"
                }
            ],
            "stateMutability": "view",
            "type": "function"
        },
        {
            "inputs": [],
            "name": "owner",
            "outputs": [
                {
                    "internalType": "address",
                    "name": "",
                    "type": "address"
                }
            ],
            "stateMutability": "view",
            "type": "function"
        },
        {
            "inputs": [],
            "name": "symbol",
            "outputs": [
                {
                    "internalType": "string",
                    "name": "",
                    "type": "string"
                }
            ],
            "stateMutability": "view",
            "type": "function"
        },
        {
            "inputs": [],
            "name": "totalSupply",
            "outputs": [
                {
                    "internalType": "uint256",
                    "name": "theTotalSupply",
                    "type": "uint256"
                }
            ],
            "stateMutability": "view",
            "type": "function"
        },
        {
            "inputs": [
                {
                    "internalType": "address",
                    "name": "_to",
                    "type": "address"
                },
                {
                    "internalType": "uint256",
                    "name": "_amount",
                    "type": "uint256"
                }
            ],
            "name": "transfer",
            "outputs": [
                {
                    "internalType": "bool",
                    "name": "success",
                    "type": "bool"
                }
            ],
            "stateMutability": "nonpayable",
            "type": "function"
        },
        {
            "inputs": [
                {
                    "internalType": "address",
                    "name": "_from",
                    "type": "address"
                },
                {
                    "internalType": "address",
                    "name": "_to",
                    "type": "address"
                },
                {
                    "internalType": "uint256",
                    "name": "_amount",
                    "type": "uint256"
                }
            ],
            "name": "transferFrom",
            "outputs": [
                {
                    "internalType": "bool",
                    "name": "success",
                    "type": "bool"
                }
            ],
            "stateMutability": "nonpayable",
            "type": "function"
        }
    ],
    "bytecode": "620f424060025560c0604052601060808190526f496d70657269616c204372656469747360801b60a0908152610038916003919061009d565b5060408051808201909152600280825261494360f01b60209092019182526100629160049161009d565b5034801561006f57600080fd5b50600580546001600160a01b0319163390811790915560025460009182526020829052604090912055610171565b8280546100a990610136565b90600052602060002090601f0160209004810192826100cb5760008555610111565b82601f106100e457805160ff1916838001178555610111565b82800160010185558215610111579182015b828111156101115782518255916020019190600101906100f6565b5061011d929150610121565b5090565b5b8082111561011d5760008155600101610122565b600181811c9082168061014a57607f821691505b6020821081141561016b57634e487b7160e01b600052602260045260246000fd5b50919050565b610684806101806000396000f3fe608060405234801561001057600080fd5b50600436106100935760003560e01c806370a082311161006657806370a08231146100fe5780638da5cb5b1461012757806395d89b4114610152578063a9059cbb1461015a578063dd62ed3e1461016d57600080fd5b806306fdde0314610098578063095ea7b3146100b657806318160ddd146100d957806323b872dd146100eb575b600080fd5b6100a06101a6565b6040516100ad91906104a9565b60405180910390f35b6100c96100c436600461051a565b610234565b60405190151581526020016100ad565b6002545b6040519081526020016100ad565b6100c96100f9366004610544565b6102a1565b6100dd61010c366004610580565b6001600160a01b031660009081526020819052604090205490565b60055461013a906001600160a01b031681565b6040516001600160a01b0390911681526020016100ad565b6100a06103e5565b6100c961016836600461051a565b6103f2565b6100dd61017b36600461059b565b6001600160a01b03918216600090815260016020908152604080832093909416825291909152205490565b600380546101b3906105ce565b80601f01602080910402602001604051908101604052809291908181526020018280546101df906105ce565b801561022c5780601f106102015761010080835404028352916020019161022c565b820191906000526020600020905b81548152906001019060200180831161020f57829003601f168201915b505050505081565b3360008181526001602090815260408083206001600160a01b038716808552925280832085905551919290917f8c5be1e5ebec7d5bd14f71427d1e84f3dd0314c0f7b2291e5b200ac8c7c3b9259061028f9086815260200190565b60405180910390a35060015b92915050565b6001600160a01b03831660009081526020819052604081205482118015906102ec57506001600160a01b03841660009081526001602090815260408083203384529091529020548211155b80156102f85750600082115b801561032457506001600160a01b038316600090815260208190526040902054610322838261061f565b115b156103da576001600160a01b03841660009081526020819052604081208054849290610351908490610637565b90915550506001600160a01b0383166000908152602081905260408120805484929061037e90849061061f565b92505081905550826001600160a01b0316846001600160a01b03167fddf252ad1be2c89b69c2b068fc378daa952ba7f163c4a11628f55a4df523b3ef846040516103ca91815260200190565b60405180910390a35060016103de565b5060005b9392505050565b600480546101b3906105ce565b3360009081526020819052604081205482116104a1573360009081526020819052604081208054849290610427908490610637565b90915550506001600160a01b0383166000908152602081905260408120805484929061045490849061061f565b90915550506040518281526001600160a01b0384169033907fddf252ad1be2c89b69c2b068fc378daa952ba7f163c4a11628f55a4df523b3ef9060200160405180910390a350600161029b565b50600061029b565b600060208083528351808285015260005b818110156104d6578581018301518582016040015282016104ba565b818111156104e8576000604083870101525b50601f01601f1916929092016040019392505050565b80356001600160a01b038116811461051557600080fd5b919050565b6000806040838503121561052d57600080fd5b610536836104fe565b946020939093013593505050565b60008060006060848603121561055957600080fd5b610562846104fe565b9250610570602085016104fe565b9150604084013590509250925092565b60006020828403121561059257600080fd5b6103de826104fe565b600080604083850312156105ae57600080fd5b6105b7836104fe565b91506105c5602084016104fe565b90509250929050565b600181811c908216806105e257607f821691505b6020821081141561060357634e487b7160e01b600052602260045260246000fd5b50919050565b634e487b7160e01b600052601160045260246000fd5b6000821982111561063257610632610609565b500190565b60008282101561064957610649610609565b50039056fea26469706673582212205a41614c19aa47810bebe04a24c96d43b478a56fa9c9093925f8baa845c6217964736f6c634300080b0033",
    "sourcePath": "c:/Users/hbari/Desktop/imperial_credit/token.sol",
    "compiler": {
        "name": "solc",
        "version": "0.8.11+commit.d7f03943"
    },
    "functionHashes": {
        "allowance(address,address)": "dd62ed3e",
        "approve(address,uint256)": "095ea7b3",
        "balanceOf(address)": "70a08231",
        "name()": "06fdde03",
        "owner()": "8da5cb5b",
        "symbol()": "95d89b41",
        "totalSupply()": "18160ddd",
        "transfer(address,uint256)": "a9059cbb",
        "transferFrom(address,address,uint256)": "23b872dd"
    },
    "gasEstimates": {
        "creation": {
            "codeDepositCost": "333600",
            "executionCost": "infinite",
            "totalCost": "infinite"
        },
        "external": {
            "allowance(address,address)": "infinite",
            "approve(address,uint256)": "24523",
            "balanceOf(address)": "2540",
            "name()": "infinite",
            "owner()": "2359",
            "symbol()": "infinite",
            "totalSupply()": "2326",
            "transfer(address,uint256)": "53256",
            "transferFrom(address,address,uint256)": "infinite"
        }
    }
}